:1000000020C0FECFFDCFFCCFFBCFFACFF9CFF8CF8A
:100010004AC0F6CFF5CFF4CFF3CFF2CFF1CFF0CF88
:10002000EFCFEECFEDCF1027E80364000A00010008
:10003000001000011000010046000200040038001A
:100040000000F894EE27ECBBF1E0FBBFEBBFE5BF8F
:100050008DE0A2E0BB27ED938A95E9F780E094E07C
:10006000A0E6ED930197E9F7EAE3F0E08591959139
:10007000009761F0A591B59105901590BF01F00131
:1000800005900D920197E1F7FB01F0CFEFE5EDBF91
:10009000E4E0EEBFC0E6D1E000C0A0E1B7E243D0AB
:1000A0007894FFCFFFCF0A921A92FA926A937A93CA
:1000B0008A939A93AA93BA93EA93FA93EFB7EA933F
:1000C000CCD0F201A0E1B7E278D08F01A0E6B1E098
:1000D000ED91FD913196FE93EE93E1E0EBBDEFE8FB
:1000E000EABD52D010F44BD00EC04ED010F056D016
:1000F00008F002C03FD007C051D028F0E0E0E09304
:100100006001E093610109911991E991EFBFF991C3
:10011000E991B991A9919991899179916991F99010
:10012000199009901895BA93AA93E7B3E660E7BBD4
:10013000E9B7E9BFE0E8EFBDEFB5E260EFBDEEB5CE
:10014000E861EEBDEEB5E160EEBDE881F9816627BC
:100150007727A0E0B2E18AE790E067D031973F01CE
:10016000E72DF070E7BDE62DE6BDE9B7E460E9BF35
:1001700022960895EFB5EF77EFBDB9980895EFB5E2
:10018000E068EFBDB99A0895F801F695E795A0915A
:100190006001B0916101AE17BF070895A0916001A1
:1001A000B0916101A017B1070895F0956095709521
:1001B000E195FF4F6F4F7F4F08950024112490E188
:1001C000AA0FBB1F001C111C0E1A1F0A18F40E0EDA
:1001D0001F1E01C0A1609A9599F7FD01D0010895F5
:1001E0003F934F935F93002411244427552730E217
:1001F000AA0FBB1F881F991F001C111C441F551FED
:100200000E1A1F0A460B570B28F40E0E1F1E461F10
:10021000571F01C0A1603A9559F7FD01BC01D001FB
:10022000CA015F914F913F91089504D0D9DF0EF438
:10023000BCDF0895E89477FF02C0B7DF689497FFAA
:100240000BC00024A095B095809590951196801DC7
:10025000901D00F8039400FA08951A930A930895E4
:00000001FF
